:107800005CC000008FC0000073C0000071C00000A9
:107810006FC000006DC000006BC0000069C00000B8
:1078200067C0000065C0000063C0000061C00000C8
:107830005FC000005DC000005BC0000059C00000D8
:1078400057C0000055C0000053C0000051C00000E8
:107850004FC000004DC000004BC0000049C00000F8
:1078600047C0000045C00000040309041C03770062
:10787000770077002E0066006900730063006800DF
:107880006C002E00640065000E035500530042009A
:1078900061007300700012011001FF000008C016A3
:1078A000DC05020101020001090212000101008051
:1078B0003209040000000000000011241FBECFEFB9
:1078C000D8E0DEBFCDBF11E0A0E0B1E0E6E2F0E835
:1078D00002C005900D92A630B107D9F711E0A6E0DD
:1078E000B1E001C01D92A034B107E1F765D199C3A1
:1078F00087CFA82FB92F80E090E041E050EA609553
:1079000030E009C02D9182279795879510F0842744
:107910009527305EC8F36F5FA8F30895EADF8D9373
:107920009D930895CF93CFB7CF93DF93C3954C9B8F
:10793000E9F74C9B0BC04C9B09C04C9B07C04C9B70
:1079400005C04C9B03C04C9B01C089C06F93C09184
:107950002301DD27C65DDE4F2F9365E54C9B03C0F9
:107960002F916F91E6CF0F931F934F9320E040E14B
:107970005F9309B1047104FB27F93F9350E03BE0AA
:1079800039C0147140642F77012F5F5F1EC04068BB
:1079900019B114712F7752501FC0406409B12F776D
:1079A0000471D1F15F5F00C023C0406219B12F772D
:1079B000147191F15F5F00C025C004711027515010
:1079C00012F45D5F0000115027952C3F19B1C8F6E5
:1079D00014710127015027952C3FC8F6422749937F
:1079E00009B1047110274F73115027952C3FA8F649
:1079F0004695469519B1147179F0012701502795E4
:107A00002C3F98F66B5A60F3315009B1B0F600C0C4
:107A100011E01CBB002717C03B503195C31BD04061
:107A200011E01CBB0881033CF9F00B34E9F0209114
:107A300021011981110F1213EDCF093651F10D32C9
:107A400011F0013E39F7009328013F915F914F916A
:107A50001F910F912F916F91CCB3C0FD67CFDF9134
:107A6000CF91CFBFCF91189520912801222369F3A0
:107A700010912601112339F534303AF13093260163
:107A800020932201109123013BE0311B309323010D
:107A90001CC0009126010130B4F40AE530910001C8
:107AA00034FD14C000930001C6E1D1E013C00527E6
:107AB00010E000C000000BB91AC0052710E0221F1B
:107AC0001DC010E021C04AE502C032ED432FC4E1E1
:107AD000D0E032E01AB114615C9A0BB11AB954E1EA
:107AE00020E865E320FF05270BB9279517951C3F74
:107AF000F0F66695B8F7B1F720FF05270BB9279583
:107B000017951C3FD0F62795179517FF05270000FE
:107B10001C3F0BB9B0F629913A9519F70B7E1091DD
:107B20002701110FC651D0400BB911F0109321015C
:107B300011E01CBB00611AB11B7E402F4B7E54E04C
:107B40005A95F1F70BB91AB94BB97FCF1BB8F89416
:107B50001DBA1092690081E085BF15BEE091140145
:107B6000F09115010995282F80910B0190910C013E
:107B7000019690930C0180930B010197E1F48091A1
:107B800006018823B1F008952D9A8AEF90E0E0E98C
:107B9000F1E03197F1F70197D1F7A8952D988AEF89
:107BA00090E0E0E9F1E03197F1F70197D1F7A8957E
:107BB0002150222349F7089588E10FB6F894809365
:107BC0006000109260000FBE5F9A04B601FE12C200
:107BD00014BE81E085BF82E085BF4F990BC28091C2
:107BE0006900826080936900E89A549A20E005C099
:107BF000A89580EA9FE00197F1F72150C9F75498C2
:107C00007894259ACC24DD2483E0ADDF9091260181
:107C1000935097FD66C1809123010CE010E0081B92
:107C20001109065D1E4F809122018D3209F0E2C0DC
:107C3000983009F054C183EC809316018AE5809353
:107C4000000110920D01D8018C91807611962C9133
:107C50001197882309F455C087E091E0909325019E
:107C6000809324012330F9F413969C911397149672
:107C70008C91149712962C91203339F48370E82F4D
:107C8000F0E0EE5FFE4F80810AC0203A11F4B3D1DC
:107C900006C0203C19F4F8016581B5D180E08093DD
:107CA0000A0194E027C0253011F491E023C0822F0F
:107CB00084508630C8F4D80112968D919C91139708
:107CC0009093100180930F01293099F016968C91B2
:107CD00016978093110115968C91827080931201F2
:107CE000209313019FEF06C0223019F481E08093A6
:107CF0000E0190E081E0809306019F3F09F465C08A
:107D00006EC0F801828110921F01222331F410927B
:107D100020012FE131E092E053C0253019F4809327
:107D200027014BC02630C9F5D80113968C918130BC
:107D300019F486E998E704C0823041F488EA98E7AC
:107D4000909325018093240192E123C0833001F5B3
:107D5000F8018281882341F488E698E79093250111
:107D60008093240194E015C0813041F48CE698E7BB
:107D700090932501809324019CE10BC0823041F453
:107D800088E898E790932501809324019EE001C044
:107D900090E080E480930D0122C0283019F429E29C
:107DA00031E009C0293019F48093290106C02A3036
:107DB00021F42FE131E091E003C02FE131E090E0C8
:107DC00030932501209324010AC0D8018C9187FFAC
:107DD00002C016969C9180E880930D0107C0F801BF
:107DE0008781882319F48681891708F0892F809369
:107DF000010175C080910D0187FF71C08091110153
:107E0000F92E891708F4F82E8F1980931101EE24AA
:107E1000882311F4EE24E39480911301873010F04D
:107E2000E80114C050911201E0910F01F09110018E
:107E300040E04AC080910F0190911001019690930B
:107E4000100180930F0101976991DDD09E01201BE5
:107E50002F1580F340C0CF018F779070892B49F4A4
:107E6000F89483E080935700E895789407B600FC77
:107E7000FDCF4E5FF894D8018D919D918D0121E049
:107E80000C0120935700E895112478949F012E5FF0
:107E90003F4FC9018F779070892B31F0EE2099F018
:107EA0004F1588F0552379F0F89485E080935700BA
:107EB000E895789407B600FCFDCFF89481E18093B3
:107EC0005700E8957894F9014F1508F4C4CFF09362
:107ED0001001E0930F01EE2011F0109201011092B9
:107EE00026018091000184FF71C0809101018F3FC4
:107EF00009F46CC0182F893008F018E0811B8093BA
:107F000001018091160198E88927809316011123B9
:107F100009F44AC080910D0187FF2AC080911101A8
:107F2000811708F4182F811B809311010091130110
:107F3000C7E1D1E015C0E0910F01F09110010730C9
:107F400018F0CF0158D001C0849188832196809188
:107F50000F019091100101969093100180930F01F1
:107F6000812F90E0895E9E4FC817D90721F71AC06C
:107F7000E0912401F091250186FF09C0912FA7E12E
:107F8000B1E084918D9331969150D9F707C0912F2C
:107F9000A7E1B1E081918D939150E1F7F093250134
:107FA000E0932401193060F487E191E0612FB6DCA1
:107FB000612F6C5F6C3041F08FEF8093010104C042
:107FC0008FEF809301016EE16093000194E189B12C
:107FD000847131F49150D9F7109227011092210148
:107FE00080910E01882321F0CA9411F4DA9411F0E3
:107FF0004F9B0ACEABDDF999FECF92BD81BDF89AB9
:10800000992780B50895262FF999FECF1FBA92BD02
:1080100081BD20BD0FB6F894FA9AF99A0FBE019669
:068020000895F894FFCF63
:068026005AFF1E950F0039
:040000030000780081
:00000001FF
