:101800003BC06FC054C053C052C051C050C04FC045
:101810004EC04DC04CC04BC04AC049C048C047C074
:1018200046C045C044C0040309041C037700770088
:1018300077002E00660069007300630068006C008A
:101840002E00640065000E03550053004200610045
:101850007300700012011001FF000008C016DC05C3
:101860000201010200010902120001010080320997
:10187000040000000000000011241FBECFE5D4E0EA
:10188000DEBFCDBF10E0A0E6B0E0ECEDFFE102C0AE
:1018900005900D92A636B107D9F710E0A6E6B0E0A4
:1018A00001C01D92A03AB107E1F764D195C3A8CF5A
:1018B000A82FB92F80E090E041E050EA609530E039
:1018C00009C02D9182279795879510F08427952739
:1018D000305EC8F36F5FA8F30895EADF8D939D93A0
:1018E0000895CF93CFB7CF93DF93C395849BE9F748
:1018F000849B0BC0849B09C0849B07C0849B05C04C
:10190000849B03C0849B01C089C06F93C0918300F6
:10191000DD27C657DF4F2F9365E5849B03C02F91CA
:101920006F91E6CF0F931F934F9320E040E15F93B9
:1019300000B3047104FB27F93F9350E03BE039C04A
:10194000147140642F77012F5F5F1EC0406810B391
:1019500014712F7752501FC0406400B32F77047169
:10196000D1F15F5F00C023C0406210B32F771471C4
:1019700091F15F5F00C025C004711027515012F42F
:101980005D5F0000115027952C3F10B3C8F614710D
:101990000127015027952C3FC8F64227499300B3F1
:1019A000047110274F73115027952C3FA8F64695C8
:1019B000469510B3147179F00127015027952C3FFB
:1019C00098F66B5A60F3315000B3B0F600C010E4E3
:1019D0001ABF002717C03B503195C31BD04010E4FD
:1019E0001ABF0881033CF9F00B34E9F02091810023
:1019F0001981110F1213EDCF093651F10D3211F08B
:101A0000013E39F7009388003F915F914F911F91FC
:101A10000F912F916F91CAB7C6FD67CFDF91CF911C
:101A2000CFBFCF91189520918800222369F31091A0
:101A30008600112339F534303AF130938600209333
:101A40008200109183003BE0311B309383001CC067
:101A5000009186000130B4F40AE53091600034FD55
:101A600014C000936000C6E7D0E013C0052710E063
:101A700000C0000002BB1AC0052710E0221F1DC0D5
:101A800010E021C04AE502C032ED432FC4E1D0E0AE
:101A900032E011B31461949A02B311BB54E120E80F
:101AA00065E320FF052702BB279517951C3FF0F63D
:101AB0006695B8F7B1F720FF052702BB2795179564
:101AC0001C3FD0F62795179517FF052700001C3FF0
:101AD00002BBB0F629913A9519F70B7E1091870059
:101AE000110FC651D04002BB11F01093810010E4D9
:101AF0001ABF006111B31B7E402F4B7E54E05A95F4
:101B0000F1F702BB11BB42BB7FCF12BAF8941BBEE8
:101B100015BE81E08BBF1BBEE0917400F091750093
:101B20000995282F80916B0090916C0001969093FD
:101B30006C0080936B000197E1F48091660088232C
:101B4000B1F00895C59A8AEF90E0E0E9F1E03197AD
:101B5000F1F70197D1F7A895C5988AEF90E0E0E9F1
:101B6000F1E03197F1F70197D1F7A89521502223A1
:101B700049F7089588E10FB6F89481BD11BC0FBEF6
:101B8000979A04B601FE12C214BE81E08BBF82E0B8
:101B90008BBF87990BC285B7826085BF8BB7806486
:101BA0008BBF8C9A20E005C0A89580EA9FE0019742
:101BB000F1F72150C9F78C987894BD9ACC24DD2494
:101BC00083E0AFDF90918600935097FD66C18091CE
:101BD00083000CE010E0081B110906571F4F80918D
:101BE00082008D3209F0E2C0983009F054C183ECD4
:101BF000809376008AE58093600010926D00D80192
:101C00008C91807611962C911197882309F455C0F8
:101C100087E690E090938500809384002330F9F468
:101C200013969C91139714968C91149712962C915D
:101C3000203339F48370E82FF0E0EE59FF4F8081B4
:101C40000AC0203A11F4B3D106C0203C19F4F801BF
:101C50006581B5D180E080936A0094E027C025308B
:101C600011F491E023C0822F84508630C8F4D8014B
:101C700012968D919C9113979093700080936F00B2
:101C8000293099F016968C911697809371001596CD
:101C90008C91827080937200209373009FEF06C036
:101CA000223019F481E080936E0090E081E080930F
:101CB00066009F3F09F465C06EC0F80182811092F2
:101CC0007F00222331F4109280002FE730E092E071
:101CD00053C0253019F4809387004BC02630C9F5D6
:101CE000D80113968C91813019F484E598E104C0F1
:101CF000823041F486E698E19093850080938400D9
:101D000092E123C0833001F5F8018281882341F4F8
:101D100086E298E1909385008093840094E015C05A
:101D2000813041F48AE298E19093850080938400A9
:101D30009CE10BC0823041F486E498E190938500E9
:101D4000809384009EE001C090E080E480936D0069
:101D500022C0283019F429E830E009C0293019F4EC
:101D60008093890006C02A3021F42FE730E091E00B
:101D700003C02FE730E090E030938500209384008B
:101D80000AC0D8018C9187FF02C016969C9180E80A
:101D900080936D0007C0F8018781882319F486813C
:101DA000891708F0892F8093610075C080916D00BC
:101DB00087FF71C080917100F92E891708F4F82E01
:101DC0008F1980937100EE24882311F4EE24E3949C
:101DD00080917300873010F0E80114C050917200B8
:101DE000E0916F00F091700040E04AC080916F0078
:101DF0009091700001969093700080936F0001970E
:101E00006991DDD09E01201B2F1580F340C0CF01CA
:101E10008F739070892B49F4F89483E08093570076
:101E2000E895789407B600FCFDCF4E5FF894D80192
:101E30008D919D918D0121E00C0120935700E89533
:101E4000112478949F012E5F3F4FC9018F739070CA
:101E5000892B31F0EE2099F04F1588F0552379F059
:101E6000F89485E080935700E895789407B600FCD5
:101E7000FDCFF89481E180935700E8957894F901BB
:101E80004F1508F4C4CFF0937000E0936F00EE207C
:101E900011F010926100109286008091600084FF22
:101EA00071C0809161008F3F09F46CC0182F893098
:101EB00008F018E0811B809361008091760098E81B
:101EC000892780937600112309F44AC080916D0020
:101ED00087FF2AC080917100811708F4182F811B99
:101EE0008093710000917300C7E7D0E015C0E091C6
:101EF0006F00F0917000073018F0CF0158D001C08A
:101F000084918883219680916F0090917000019652
:101F10009093700080936F00812F90E089589F4FBD
:101F2000C817D90721F71AC0E0918400F091850005
:101F300086FF09C0912FA7E7B0E084918D93319679
:101F40009150D9F707C0912FA7E7B0E081918D9309
:101F50009150E1F7F0938500E0938400193060F42C
:101F600087E790E0612FB9DC612F6C5F6C3041F046
:101F70008FEF8093610004C08FEF809361006EE16A
:101F80006093600094E180B3847131F49150D9F78B
:101F9000109287001092810080916E00882321F0BA
:101FA000CA9411F4DA9411F0879B0ACEAEDDE19960
:101FB000FECF9FBB8EBBE09A99278DB30895262F45
:101FC000E199FECF9FBB8EBB2DBB0FB6F894E29A72
:0C1FD000E19A0FBE01960895F894FFCF2F
:061FDC005AFF1E930700EE
:0400000300001800E1
:00000001FF
